:100000000C9434000C943E000C943E000C943E0082
:100010000C943E000C943E000C943E000C943E0068
:100020000C943E000C943E000C943E000C943E0058
:100030000C943E000C943E000C943E000C943E0048
:100040000C943E000C943E000C943E000C943E0038
:100050000C943E000C943E000C943E000C943E0028
:100060000C943E000C943E0011241FBECFEFD4E050
:10007000DEBFCDBF0E9446000C9466000C940000C9
:100080001A9B02C0299A089529980895CF93DF9367
:1000900083E084B980E88AB9299AC8ECD0E0289A2C
:1000A0005F980E94400080E197E2FE013197F1F7EE
:1000B0000197D9F728985F9A0E94400080E197E263
:1000C000FE013197F1F70197D9F7E9CFF894FFCF07
:00000001FF
