:100000000C9434000C943E000C943E000C943E0082
:100010000C943E000C943E000C943E000C943E0068
:100020000C943E000C943E000C943E000C943E0058
:100030000C943E000C943E000C943E000C943E0048
:100040000C943E000C943E000C943E000C943E0038
:100050000C943E000C943E000C943E000C943E0028
:100060000C943E000C943E0011241FBECFEFD4E050
:10007000DEBFCDBF0E9440000C9459000C940000DC
:100080008FEF84B980E88AB928EC30E0289A5F982D
:1000900080E197E2F9013197F1F70197D9F72898B4
:1000A0005F9A80E197E2F9013197F1F70197D9F76B
:0600B000EDCFF894FFCF34
:00000001FF
