:100000000C9434000C9449000C9449000C94490061
:100010000C9449000C9449000C9449000C9449003C
:100020000C9449000C9449000C9449000C9449002C
:100030000C9449000C9449000C9449000C9449001C
:100040000C9449000C9449000C9449000C9449000C
:100050000C9449000C9449000C9449000C944900FC
:100060000C9449000C94490011241FBECFEFD4E03A
:10007000DEBFCDBF11E0A0E0B1E0E8ECF2E002C0ED
:1000800005900D92AA30B107D9F70E9490000C9408
:1000900062010C9400009C0140E050E060E271EAD3
:1000A00087E090E00E94E000215030403093C5008E
:1000B0002093C4001092C00088E98093C1008EE0B4
:1000C0008093C2000895FC0107C08091C00085FFA5
:1000D000FCCF9093C600319690819923B1F7089593
:1000E00010927C0080EC80937A00089580937C00CD
:1000F00080917A008F7E80937A0080917A0080646C
:1001000080937A0080917A0084FFFCCF90917800F0
:1001100080917900382F20E0290F311DC901089501
:10012000AF92BF92CF92DF92EF92FF920F931F9305
:10013000DF93CF93CDB7DEB72A970FB6F894DEBF23
:100140000FBECDBF209A579A80E895E20E944B00DF
:1001500010927C0080EC80937A0080E091E00E9415
:1001600063005E010894A11CB11C88ECC82ED12C40
:1001700085E00E9476007C01B5014AE050E00E94D3
:100180001D010E94630087E091E00E946300C701A7
:10019000801B910B06971CF0289A5F9807C00E19D8
:1001A0001F090630110514F028985F9A28EE33E0F5
:1001B000C6010197F1F7215030408701C9F2F8CF0D
:1001C00097FB092E05260ED057FD04D014D00AD077
:1001D000001C38F450954095309521953F4F4F4F76
:1001E0005F4F0895F6F790958095709561957F4FD4
:1001F0008F4F9F4F0895A1E21A2EAA1BBB1BFD0132
:100200000DC0AA1FBB1FEE1FFF1FA217B307E407F5
:10021000F50720F0A21BB30BE40BF50B661F771F4D
:10022000881F991F1A9469F760957095809590952D
:100230009B01AC01BD01CF010895FB019F01E89432
:100240004230C4F04532B4F44A3029F497FB1EF42E
:10025000909581959F4F642F77270E944E01805D76
:100260008A330CF0895D8193CB010097A1F716F4D6
:100270005DE251931082C9010C943E01DC01FC0146
:10028000672F71917723E1F7329704C07C916D93CA
:1002900070836291AE17BF07C8F30895AA1BBB1BFA
:1002A00051E107C0AA1FBB1FA617B70710F0A61B76
:1002B000B70B881F991F5A95A9F780959095BC0197
:0802C000CD010895F894FFCF71
:0A02C80073746172740A000A0000EA
:00000001FF
