:100000000C9434000C9449000C9449000C94490061
:100010000C9449000C9449000C9449000C9449003C
:100020000C9449000C9449000C9449000C9449002C
:100030000C9449000C9449000C9449000C9449001C
:100040000C9449000C9449000C9449000C9449000C
:100050000C9449000C9449000C9449000C944900FC
:100060000C9449000C94490011241FBECFEFD4E03A
:10007000DEBFCDBF11E0A0E0B1E0E0EBF1E002C0F7
:1000800005900D92A831B107D9F70E9470000C9429
:10009000D6000C9400009C0140E050E060E271EA60
:1000A00087E090E00E949900215030403093C500D5
:1000B0002093C4001092C00088E98093C1008EE0B4
:1000C0008093C2000895FC0107C08091C00085FFA5
:1000D000FCCF9093C600319690819923B1F7089593
:1000E000CF93DF93209A579A80E895E20E944B00C5
:1000F00080E091E00E946300C8ECD0E0289A5F980D
:1001000087E091E00E94630088EE93E0FE01319762
:10011000F1F70197D9F728985F9A8DE091E00E9456
:10012000630088EE93E0FE013197F1F70197D9F76C
:10013000E5CF97FB092E05260ED057FD04D014D02D
:100140000AD0001C38F450954095309521953F4FCA
:100150004F4F5F4F0895F6F7909580957095619594
:100160007F4F8F4F9F4F0895A1E21A2EAA1BBB1BF2
:10017000FD010DC0AA1FBB1FEE1FFF1FA217B30773
:10018000E407F50720F0A21BB30BE40BF50B661F89
:10019000771F881F991F1A9469F76095709580954D
:1001A00090959B01AC01BD01CF010895F894FFCF5C
:1001B00073746172740A006D75686F0A00686F6D00
:0801C00075686F6D750A0000FF
:00000001FF
